:100000000C94C4010C944E200C947B200C94EC01B5
:100010000C94EC010C94EC010C94EC010C94EC01AC
:100020000C94EC010C94EC010C94EC010C94EC019C
:100030000C94EC010C94EC010C94EC010C94EC018C
:100040000C9460080C94EC010C94EC010C94EC0101
:100050000C94EC010C94EC010C94EC010C94EC016C
:100060000C94EC010C94EC0100000008000201006B
:100070000003040700000000000000000102040863
:100080001020408001020408102001020408102002
:10009000040404040404040402020202020203032E
:1000A0000303030300000000250028002B000000CC
:1000B0000000240027002A000707020304050607A2
:1000C00008090A0B0C0D0E0F101112131415161738
:1000D00018191A1B1C011E1F202122232425262744
:1000E00028292A2B2C2D2E2F303132333435363718
:1000F000381D080840400106020304054040070C73
:1001000008090A0B40400D120E0F10114040131841
:10011000141516174040191E1A1B1C1D40401F24A1
:10012000202122234040252A2627282940402B3001
:100130002C2D2E2F07060E110B180105031C0F0680
:10014000150A17130C041A0810071B140D02293482
:100150001F252F371E28332D21302C3127382235EB
:100160002E2A32241D2008073931292119110901AD
:100170003A322A221A120A023B332B231B130B0397
:100180003C342C243F372F271F170F073E362E26CF
:100190001E160E063D352D251D150D051C140C04CF
:1001A0000808280830103818402027072F0F371765
:1001B0003F1F26062E0E36163E1E25052D0D351523
:1001C0003D1D24042C0C34143C1C23032B0B331333
:1001D0003B1B22022A0A32123A1A21012909311143
:1001E000391908083A322A221A120A023C342C24FD
:1001F0001C140C043E362E261E160E0640383028DF
:100200002018100839312921191109013B332B23FA
:100210001B130B033D352D251D150D053F372F27CE
:100220001F170F070404100714151D0C1C11010FD4
:10023000171A05121F0A0208180E201B0309130DB6
:100240001E06160B0419040620010203040504050A
:100250000607080908090A0B0C0D0C0D0E0F1011EA
:1002600010111213141514151617181918191A1B32
:100270001C1D1C1D1E1F2001E4D12FB83A6C59070C
:100280000F74E2D1A6CB953841E8D62BFC973A50B3
:10029000FC8249175B3EA06DF18E6B34972DC05ADE
:1002A0003D47F28EC01A69B50E7BA4D158C6932F74
:1002B000D8A13F42B67C05E9A09E63F51DC7B428CE
:1002C000D709346A285ECBF1D6498F30B12C5AE772
:1002D0001AD069874FE3B52C7DE3069A1285BC4F8F
:1002E000D8B56F03472C1AE9A690CB7DF13E528416
:1002F0003F06A1D8945BC72E2C417AB6853FD0E942
:10030000EB2C47D150FA3986421BAD78F9C5630E04
:10031000B8C71E2D6F09A453C1AF92680D34E75BB7
:10032000AF427C9561DE0B389EF528C3704A1DB63E
:10033000432C95FABE17608D4B2EF08D3C975A6179
:10034000D0B7491AE35C2F8614BDC37EAF6805920F
:100350006BD814A7950FE23CD2846FB1A93E50C769
:100360001FD8A374C56B0E927B419CE206ADF35877
:1003700021E74A8DFC90356BD402180B730E541094
:100380002A12F32000260C0311241FBECFEFD8E061
:10039000DEBFCDBF12E0A0E0B1E0EEE4F1E602C0C6
:1003A00005900D92A834B107D9F725E0A8E4B2E092
:1003B00001C01D92A637B207E1F713E0C6E8D3E00B
:1003C00004C02297FE010E94C129C837D107C9F78E
:1003D0000E9451080C949A300C940000EF92FF9206
:1003E0000F931F93CF93DF93CDB7DEB7C055D109DD
:1003F0000FB6F894DEBF0FBECDBF6B960EAD1FAD2E
:100400006B979E01235A3F4F6D964EAD5FAD6D9732
:1004100060E570E0CE0101960E949F2DCE0101960D
:100420007C01F70180818823B9F08A3049F4D80132
:10043000ED91FC910190F081E02D6DE0C8010995EE
:10044000D801ED91FC910190F081E02DD7016D91E3
:100450007D01C8010995E5CFC05BDF4F0FB6F89469
:10046000DEBF0FBECDBFDF91CF911F910F91FF90E7
:10047000EF9008950F931F93CF93DF930CEA12E050
:10048000C0E1D0E0CE010E949D2FF80181938F0141
:100490002196C332D105B1F71092BF0205EC12E0EC
:1004A000C3E2D0E0CE010E949D2FF80181938F011D
:1004B0002196CB32D105B1F71092CD020EEC12E0AD
:1004C000C0E3D0E0CE010E949D2FF80181938F01FF
:1004D0002196C633D105B1F7DF91CF911F910F91CE
:1004E0000895EF92FF920F931F93CF93DF938C01A8
:1004F000EB017A010E94AA086C8B7D8B8E8B9F8BFF
:10050000B801605F7F4F9701AE0188E592E00E94DD
:10051000EA19AE01485F5F4FB801685F7F4F9701EE
:1005200088E592E00E94EA19AE01405F5F4F9701B3
:10053000B80188E592E0DF91CF911F910F91FF9074
:10054000EF900C94EA198A30910514F089E090E05C
:10055000282F277008970CF020622061F89484B748
:10056000877F84BF809160008861809360002093C2
:1005700060008091600080648093600078940895AA
:10058000F894A89584B7877F84BFE0E6F0E0808187
:10059000886180831082789481E0089583E090E000
:1005A0000E94A302FFCF08950F9300E020E040E0F7
:1005B00060E085ED92E00E94F10A03E021E048EA64
:1005C00060EC8DE892E00E94F10A02E020E040E059
:1005D0006AE087E892E00E94F10A0EEF20E040E036
:1005E0006AE081E892E00E94F10A84E792E00E94CA
:1005F0007F0F45E050E064E772E08AE692E00E94F7
:10060000811F64EE71E084E692E00E94950B89E51B
:1006100092E00F910C94E31A84E692E00C94270B7D
:100620000E94C00246EE53E06AE071E084E792E087
:100630000E94210F892B51F084E792E00E94F60F6F
:1006400089E090E00E94A30281E0089584E792E0AF
:100650000E94F60F89E090E00E94A30280E00895D6
:10066000EF92FF920F931F93CF93DF93CDB7DEB737
:1006700062970FB6F894DEBF0FBECDBF07EF11E053
:100680001A83098380918F0290919002A091910228
:10069000B09192028B839C83AD83BE83AE014F5F8A
:1006A0005F4F6EEC72E08AEE92E00E94250E0E948F
:1006B0001003882311F091E081C19EEFF92EF09292
:1006C00092021A83098380918F0290919002A091E7
:1006D0009102B09192028B839C83AD83BE83AE0165
:1006E0004F5F5F4F6EEC72E08AEE92E00E94250E43
:1006F0000E9410038111DFCF8FE6E82EE092920274
:100700001A83098380918F0290919002A0919102A7
:10071000B09192028B839C83AD83BE83AE014F5F09
:100720005F4F6EEC72E08AEE92E00E94250E0E940E
:1007300010038111C0CF109291021A830983809116
:100740008F0290919002A0919102B09192028B83BE
:100750009C83AD83BE83AE014F5F5F4F6EEC72E052
:100760008AEE92E00E94250E0E9410038111A3CF11
:10077000F09292021A83098380918F0290919002E5
:10078000A0919102B09192028B839C83AD83BE8332
:10079000AE014F5F5F4F6EEC72E08AEE92E00E9416
:1007A000250E0E941003811186CF83E08093920270
:1007B0001A83098380918F0290919002A0919102F7
:1007C000B09192028B839C83AD83BE83AE014F5F59
:1007D0005F4F6EEC72E08AEE92E00E94250E0E945E
:1007E0001003811168CF8AE0809391021A830983F4
:1007F00080918F0290919002A0919102B09192020B
:100800008B839C83AD83BE83AE014F5F5F4F6EECE5
:1008100072E08AEE92E00E94250E0E941003811180
:100820004ACFE09292021A83098380918F029091BD
:100830009002A0919102B09192028B839C83AD8330
:10084000BE83AE014F5F5F4F6EEC72E08AEE92E0C6
:100850000E94250E0E94100381112DCFF09292026A
:100860001A83098380918F0290919002A091910246
:10087000B09192028B839C83AD83BE83AE014F5FA8
:100880005F4F6EEC72E08AEE92E00E94250E0E94AD
:100890001003811110CF82E1809391021A830983A2
:1008A00080918F0290919002A0919102B09192025A
:1008B0008B839C83AD83BE83AE014F5F5F4F6EEC35
:1008C00072E08AEE92E00E94250E0E9410038111D0
:1008D000F2CE83E08093920207EF11E01A8309833E
:1008E00080918F0290919002A0919102B09192021A
:1008F0008B839C83AD83BE83AE014F5F5F4F6EECF5
:1009000072E08AEE92E00E94250E0E94100381118F
:10091000D2CE8FE6809392021A83098380918F0250
:1009200090919002A0919102B09192028B839C834E
:10093000AD83BE83AE014F5F5F4F6EEC72E08AEE17
:1009400092E00E94250E0E9410038111B4CE1A83FA
:1009500009838091890290918A02A0918B02B091C3
:100960008C028B839C83AD83BE8318870F8389871A
:100970009A87AB87BC871E870D87809183029091F1
:100980008402A0918502B09186028F87988BA98BF3
:10099000BA8B8E010F5F1F4F9E01295F3F4FAE0143
:1009A000435F5F4F6EEC72E08AEE92E00E94590D59
:1009B0000E94100391E0811101C090E0892F62969E
:1009C0000FB6F894DEBF0FBECDBFDF91CF911F9160
:1009D0000F91FF90EF9008952F923F924F925F9268
:1009E0006F927F928F929F92AF92BF92CF92DF923F
:1009F000EF92FF920F931F93CF93DF93CDB7DEB7A4
:100A000061970FB6F894DEBF0FBECDBF922E832E36
:100A10001A012B013C015801A0E00E94B32909F4FE
:100A2000A6C000E30E9482299F938F937F936F93C8
:100A30005F934F933F932F936BE1E62E61E0F62E89
:100A4000FF92EF92CE0101966C01DF928F930E948C
:100A50007D2D292D382DA101B201C30100E20E9494
:100A600082291F921F921F921F921F921F923F93E3
:100A70002F93FF92EF92CE0105969F938F930E9442
:100A80007D2D292D382DA101B201C30100E10E9465
:100A900082291F921F921F921F921F921F923F93B3
:100AA0002F93FF92EF92CE0109969F938F930E940E
:100AB0007D2D0FB6F894DEBF0FBECDBF1F921F92E3
:100AC0001F921F921F921F928F929F92FF92EF92FE
:100AD000CE010D969F938F930E947D2D60E271E071
:100AE00084E692E00E94AB0B60914E0270914F023F
:100AF00084E692E00E94FF0B6AE271E084E692E0F5
:100B00000E94EF0B60914C0270914D0284E692E0DE
:100B10000E94FF0B6AE271E084E692E00E94EF0B14
:100B200060914A0270914B0284E692E00E94FF0BB2
:100B30006AE271E084E692E00E94EF0B6091480265
:100B40007091490284E692E00E94FF0B6CE271E032
:100B500084E692E00E94EF0BB60184E692E00E94E8
:100B6000EF0B0FB6F894DEBF0FBECDBF06C068E333
:100B700071E084E692E00E94AB0B64E471E084E6ED
:100B800092E00E94EF0B60E571E084E692E00E9443
:100B9000EF0B66E571E084E692E00E94EF0B84E7DC
:100BA00092E00E94301081110DC00E94C002882383
:100BB00049F046EE53E0B50184E792E00E94210F30
:100BC000892B59F489E090E00E94A30284E792E027
:100BD0000E94F60F8FEF9FEFBDC089E090E00E946A
:100BE000A30245EC52E06CEA72E083E992E00E94D5
:100BF00071026EEA71E084E792E00E94180A6BECE1
:100C000071E084E792E00E94180A68ED71E084E7E1
:100C100092E00E94F9090CEA12E029E5C22E21E0D7
:100C2000D22E34E7E32E32E0F32EF80181918F01CA
:100C30001F928F93DF92CF92FF92EF920E94EE016C
:100C40000F900F900F900F900F900F90F2E00F3BCE
:100C50001F0759F784E792E00E94020A6CE571E0F1
:100C600084E792E00E94F90903E912E044E6C42E09
:100C700041E0D42E54E7E52E52E0F52EF8018191A3
:100C80008F011F928F93DF92CF92FF92EF920E947B
:100C9000EE010F900F900F900F900F900F90F2E0D9
:100CA0000B3A1F0759F784E792E00E94020A69E6AF
:100CB00071E084E792E00E94F90960916802709106
:100CC00069024AE050E084E792E00E94970A6AE7EE
:100CD00071E084E792E00E94180A62E971E084E71B
:100CE00092E00E94180A84E792E00E94020A64E6F9
:100CF00072E084E792E00E94060A84E792E00E9494
:100D0000020A0E94AA0860936002709361028093B5
:100D1000620290936302A89584E792E00E943010EB
:100D2000882309F453CF0E94C00244EA51E067EAE5
:100D300071E08AE692E00E94DC1F882309F442CF2A
:100D400089E090E00E94A30284E792E00E94F60FFF
:100D500080E090E061960FB6F894DEBF0FBECDBF85
:100D6000DF91CF911F910F91FF90EF90DF90CF9087
:100D7000BF90AF909F908F907F906F905F904F90BB
:100D80003F902F9008950F931F9360E089E592E0C4
:100D90000E94111B61E089E592E00E94111B61E055
:100DA00085E00E94660961E085E00E949F0961E09C
:100DB00081E10E94660960E081E10E949F090E9432
:100DC0003A0264E670E084E692E00E94580B89E003
:100DD00090E00E94A3026EEC72E08AEE92E00E9424
:100DE000710C892B31F40E943003811102C00E94E2
:100DF000CE02A8950E94100360EE71E084E692E0B6
:100E00000E94AB0B0AE011E020E030E040E050E04F
:100E100060E070E080E090E00E94EC04A8951F91F3
:100E20000F9108952F923F924F925F926F927F920F
:100E30008F929F92AF92BF92CF92DF92EF92FF92EA
:100E40000F931F93CF93DF93A89560E089E592E01D
:100E50000E94331B811109C061E089E592E00E9484
:100E6000331B882309F40AC15AC060E089E592E087
:100E70000E94881B19012A013B014C0110924F026C
:100E800010924E0260E089E592E00E94D11B90939F
:100E90004D0280934C0260E089E592E00E94C01B05
:100EA00090934B0280934A0260E089E592E00E94B1
:100EB000AF1B909349028093480260E089E592E07D
:100EC0000E94621BA0905002B0905102C09052024A
:100ED000D0905302E0905402F090550200915602D7
:100EE000109157029101A201B301C4010E94AA29E5
:100EF00009F070C00E94AA0800916002109161027E
:100F00002091620230916302601B710B820B930B84
:100F1000613D77408105910508F05CC09DCF61E09F
:100F200089E592E00E94881B19012A013B014C01CE
:100F300081E090E090934F0280934E0261E089E55A
:100F400092E00E94D11B90934D0280934C0261E08D
:100F500089E592E00E94C01B90934B0280934A0265
:100F600061E089E592E00E94AF1B90934902809373
:100F7000480261E089E592E00E94621BA090500265
:100F8000B0905102C0905202D0905302E0905402AF
:100F9000F090550200915602109157029101A20162
:100FA000B301C4010E94AA2909F03FC00E94AA0807
:100FB00000916002109161022091620230916302FF
:100FC000601B710B820B930B613D7740810591058E
:100FD00060F554C020925002309251024092520269
:100FE00050925302609254027092550280925602BF
:100FF000909257020E941003A895C8E7D0E00AE03B
:1010000011E09101A201B301C4010E94EC04019618
:1010100009F022CFA895219709F41ECF60EB74E068
:1010200080E090E00E94D908EACF209250023092EE
:1010300051024092520250925302609254027092B6
:10104000550280925602909257020E941003A89572
:10105000C8E7D0E00AE011E09101A201B301C401A8
:101060000E94EC04019651F4A895219739F060EBA9
:1010700074E080E090E00E94D908ECCFDF91CF913E
:101080001F910F91FF90EF90DF90CF90BF90AF90A6
:101090009F908F907F906F905F904F903F902F9098
:1010A00008950E9401090E94D3020E94C306C0E075
:1010B000D0E00E9412072097E1F30E940000F9CFD0
:1010C0001F920F920FB60F9211242F933F938F937D
:1010D0009F93AF93BF938091DC029091DD02A0912A
:1010E000DE02B091DF023091DB0223E0230F2D37C7
:1010F00020F40196A11DB11D05C026E8230F02961C
:10110000A11DB11D2093DB028093DC029093DD02D0
:10111000A093DE02B093DF028091E0029091E102A1
:10112000A091E202B091E3020196A11DB11D80934E
:10113000E0029093E102A093E202B093E302BF9138
:10114000AF919F918F913F912F910F900FBE0F9074
:101150001F9018952FB7F8946091DC027091DD0212
:101160008091DE029091DF022FBF08953FB7F8947F
:101170008091E0029091E102A091E202B091E3023D
:1011800026B5A89B05C02F3F19F00196A11DB11DE2
:101190003FBF6627782F892F9A2F620F711D811DFF
:1011A000911D42E0660F771F881F991F4A95D1F75E
:1011B0000895CF92DF92EF92FF92CF93DF936B016E
:1011C0007C010E94B608EB01C114D104E104F104D2
:1011D00089F00E943C090E94B6086C1B7D0B683E9A
:1011E000734090F381E0C81AD108E108F108C851B2
:1011F000DC4FEACFDF91CF91FF90EF90DF90CF905F
:101200000895789484B5826084BD84B5816084BD7E
:1012100085B5826085BD85B5816085BDEEE6F0E06F
:10122000808181608083E1E8F0E0108280818260CB
:101230008083808181608083E0E8F0E0808181604C
:101240008083E1EBF0E0808184608083E0EBF0E07C
:10125000808181608083EAE7F0E080818460808320
:1012600080818260808380818160808380818068CA
:1012700080831092C10008950895833081F028F48E
:10128000813099F08230A1F008958730A9F088303C
:10129000B9F08430D1F4809180008F7D03C08091BB
:1012A00080008F7780938000089584B58F7702C087
:1012B00084B58F7D84BD08958091B0008F7703C081
:1012C0008091B0008F7D8093B0000895CF93DF931D
:1012D00090E0FC01E458FF4F2491FC01E057FF4FE0
:1012E0008491882349F190E0880F991FFC01E25511
:1012F000FF4FA591B4918C559F4FFC01C591D4919E
:101300009FB7611108C0F8948C91209582238C932B
:10131000888182230AC0623051F4F8948C91322F74
:10132000309583238C938881822B888304C0F89422
:101330008C91822B8C939FBFDF91CF9108950F9357
:101340001F93CF93DF931F92CDB7DEB7282F30E0E6
:10135000F901E859FF4F8491F901E458FF4F1491C6
:10136000F901E057FF4F04910023C9F0882321F0D1
:1013700069830E943D096981E02FF0E0EE0FFF1FB5
:10138000EC55FF4FA591B4919FB7F8948C916111E2
:1013900003C01095812301C0812B8C939FBF0F90B8
:1013A000DF91CF911F910F9108956115710581F023
:1013B000DB010D900020E9F7AD0141505109461BBA
:1013C000570BDC01ED91FC910280F381E02D099433
:1013D00080E090E00895DC01ED91FC91DB01149632
:1013E0004D915C9115976D917C910280F381E02D78
:1013F00009940C94D509DC01ED91FC910190F081E8
:10140000E02D099462EE71E00C94D5090F931F93BF
:10141000CF93DF93EC010E94EB098C01CE010E9477
:10142000020A800F911FDF91CF911F910F910895B4
:101430000F931F93CF93DF93EC010E94D5098C018A
:10144000CE010E94020A800F911FDF91CF911F9160
:101450000F9108958F929F92AF92BF92CF92DF9299
:10146000EF92FF920F931F93CF93DF93CDB7DEB729
:10147000A1970FB6F894DEBF0FBECDBF7C01C42E7E
:10148000E52FCB01D22E19A221E02D1510F02AE074
:10149000D22E8E010F5D1F4F8D2C912CA12CB12CC3
:1014A0006C2D7E2FA50194010E94FE288C2DD29ECA
:1014B00080191124015011098A3014F4805D01C093
:1014C000895CF8018083211531054105510521F022
:1014D000C22EE32FCA01E4CFB801C7010E94D5098B
:1014E000A1960FB6F894DEBF0FBECDBFDF91CF91AE
:1014F0001F910F91FF90EF90DF90CF90BF90AF9032
:101500009F908F9008952115310541F4DC01ED91F4
:10151000FC910190F081E02D642F09940C942A0A2B
:101520009A01462F50E060E070E00C94830A0F931C
:101530001F93CF93DF93EC019A01AB0160E070E061
:101540000E94830A8C01CE010E94020A800F911F23
:10155000DF91CF911F910F910895AF92BF92CF92DB
:10156000DF92EF92FF920F931F93CF93DF936C0163
:101570007B01C0E0D0E000E010E0F601EC0FFD1FC1
:101580004AE050E06281C7010E94900A5C016EE26D
:10159000C7010E94FB098A0D9B1D080F191F219688
:1015A000C330D10551F74AE050E0F6016581C7012B
:1015B0000E94900A800F911FDF91CF911F910F9190
:1015C000FF90EF90DF90CF90BF90AF90089527EFFE
:1015D00031E0FC0131832083128213821482158250
:1015E00008950F93FC0187EF91E0918380836283DC
:1015F0004383248305830F91089527EF31E0FC0195
:1016000031832083FB014081518162817381FC0120
:1016100042835383648375830895FB014081518124
:1016200062817381FC0142835383648375830895CF
:1016300087EF91E09093E5028093E4021092E60236
:101640001092E7021092E8021092E9020895FC015C
:10165000808191810C947A2BCF93DF93EC01888168
:101660009981009711F00E947A2B198218821D82AD
:101670001C821B821A82DF91CF9108950F931F93D2
:10168000CF93DF93EC018B016F5F7F4F888199814E
:101690000E94662C009731F0998388831B830A830C
:1016A00081E001C080E0DF91CF911F910F910895FB
:1016B000CF93DF93EC0188819981892B29F08A816E
:1016C0009B818617970760F4CE010E943E0B88230A
:1016D00041F08C819D81892B19F4E881F981108278
:1016E00081E0DF91CF910895EF92FF920F931F93C6
:1016F000CF93DF93EC017B018A01BA010E94580B62
:10170000811104C0CE010E942C0B07C01D830C83E5
:10171000B701888199810E94462DCE01DF91CF913A
:101720001F910F91FF90EF900895FC01118210829C
:1017300013821282158214826115710559F0FB0122
:1017400001900020E9F7AF0141505109461B570BAA
:101750000C94740B0895CF93DF93EC016115710520
:1017600061F0FB0101900020E9F7AF014150510900
:10177000461B570B0E94740B02C00E942C0BCE011B
:10178000DF91CF910895EF92FF920F931F93CF9324
:10179000DF93EC017B010C811D816115710511F452
:1017A00080E016C04115510591F0040F151FB801D6
:1017B0000E94580B8823A1F3288139818C819D8157
:1017C000B701820F931F0E94462D1D830C8381E079
:1017D000DF91CF911F910F91FF90EF9008956115C8
:1017E000710559F0FB0101900020E9F7AF0141506C
:1017F0005109461B570B0C94C30B80E00895EF92E0
:10180000FF920F931F93CF93DF93CDB7DEB7289747
:101810000FB6F894DEBF0FBECDBF7C01CB014AE00E
:1018200050E08E010F5F1F4FB8010E944D2DF8014F
:1018300001900020E9F7AF0141505109401B510BC5
:10184000B801C7010E94C30B28960FB6F894DEBFFB
:101850000FBECDBFDF91CF911F910F91FF90EF9001
:10186000089520912003222399F03FB7F894209106
:101870002003213059F42DB320931E034DB3209142
:101880001F03209524232DBB3FBF02C030931E03AE
:101890008CBD9DBD089580912003882361F09FB782
:1018A000F8942091200380911E03213019F48DBB00
:1018B0009FBF08958FBF089544E050E0BC0181E0D0
:1018C00090E00C949B1644E050E0BC0185E090E071
:1018D0000C949B1644E050E0BC018FE090E00C9427
:1018E0009B16AF92BF92CF92DF92EF92FF920F932F
:1018F0001F93CF93DF9300D000D000D0CDB7DEB7D9
:101900006C015B0182E690E00E94A8208C0182E6D7
:10191000F80111928A95E9F7C801895B9F4F0E94EF
:10192000B711F601178306838EE093E00E94331609
:1019300080E590E00E94310C46E050E0B50189E07E
:1019400090E00E949B1600E020E040E060E0CE01C5
:1019500001960E94F10ACE0103960E946A0C0E9431
:101960004B0C10EAE12E1FE0F12E00E010E020E623
:101970003AEE40E050E0B501F601868197810E9481
:101980006D258C0181309105B9F580E590E00E94CC
:10199000310CF60166817781CE0101960E94B1205B
:1019A000CE0103960E946A0CF60166817781CE0112
:1019B00001960E94C720CE0103960E945C0CF6019E
:1019C00066817781CE0101960E94BC20CE010396EC
:1019D0000E94630C0E944B0CF60166817781CE0158
:1019E00001960E94D2204B815C816D817E81F6013F
:1019F0004283538364837583C80126960FB6F89497
:101A0000DEBF0FBECDBFDF91CF911F910F91FF9031
:101A1000EF90DF90CF90BF90AF9008958F929F92FC
:101A2000AF92BF92CF92DF92EF92FF920F931F93EC
:101A3000CF93DF9300D0CDB7DEB74C016A015901D7
:101A40008EE093E069837A830E94331680E590E00C
:101A50000E94310C46E050E069817A8189E090E093
:101A60000E949B16C60102960E946A0CC80102964B
:101A70000E945C0CC70102960E94630C0E944B0CF2
:101A8000F5014281538164817581F401428353835E
:101A9000648375830F900F90DF91CF911F910F9109
:101AA000FF90EF90DF90CF90BF90AF909F908F907E
:101AB00008956F927F928F929F92AF92BF92CF9232
:101AC000DF92EF92FF920F931F93CF93DF93CDB7E7
:101AD000DEB76E970FB6F894DEBF0FBECDBF6C01B8
:101AE0005B017A014901380100E02FEF4FEF6FEF02
:101AF000CE0149960E94F10A27EF31E03A8329830B
:101B00008B8D9C8DAD8DBE8D8B839C83AD83BE8371
:101B100038872F83F30182819381A481B5818987DE
:101B20009A87AB87BC873E872D87F401828193819A
:101B3000A481B5818F87988BA98BBA8B3C8B2B8B1B
:101B4000F70142815381648175814D8B5E8B6F8B70
:101B5000788FCE0101967C018E01095F1F4F9E0197
:101B6000235F3F4FAE014D5E5F4FB501C6010E943E
:101B70000E0D6E960FB6F894DEBF0FBECDBFDF918F
:101B8000CF911F910F91FF90EF90DF90CF90BF907A
:101B9000AF909F908F907F906F900895CF92DF923B
:101BA000EF92FF920F931F93CF93DF93CDB7DEB7E2
:101BB00068970FB6F894DEBF0FBECDBF6B017901F9
:101BC000DA0112964D915D916D917C9115974D8B37
:101BD0005E8B6F8B788FA7EFB1E0BA83A98321E08A
:101BE000288F0D891E892F89388D0B831C832D83A7
:101BF0003E83B887AF83F701028113812481358149
:101C000009871A872B873C87BE87AD874F87588BFC
:101C1000698B7A8B8E010F5F1F4F9E01295F3F4FAB
:101C2000AE01435F5F4FB6010E94590D68960FB633
:101C3000F894DEBF0FBECDBFDF91CF911F910F9102
:101C4000FF90EF90DF90CF9008950F931F93CF9365
:101C5000DF93CDB7DEB762970FB6F894DEBF0FBE45
:101C6000CDBFDB01FA0142815381648175814F87C9
:101C7000588B698B7A8BE7EFF1E0FA83E98321E0F7
:101C80002A8B0F85188929893A890B831C832D8318
:101C90003E83F887EF8349875A876B877C879E014D
:101CA0002F5F3F4FAE01495F5F4FBD010E94CE0DD8
:101CB00062960FB6F894DEBF0FBECDBFDF91CF9115
:101CC0001F910F91089527EF31E0FC0131832083AC
:101CD000FB014281538164817581FC0142835383FE
:101CE0006483758308950F9300E020E040E060E096
:101CF0008AEF92E00E94F10A8AEE92E00F910C9432
:101D0000E70A81E086270895862F0895DC01ED918A
:101D1000FC91048CF58DE02D099591E089270895BB
:101D2000CF93DF931F92CDB7DEB76983DC01ED91CE
:101D3000FC910280F381E02D41E050E0BE016F5F35
:101D40007F4F09950F90DF91CF91089521E0FC011D
:101D50008485843009F420E0822F0895FC01948565
:101D6000FB018485981303C081E0943009F480E07E
:101D700008950F931F93CF93DF93EC018A018C8515
:101D8000843021F00E94D513892B39F481E090E052
:101D90009B838A8380E090E001C0C801DF91CF91EE
:101DA0001F910F910895FC018485843011F00C94EB
:101DB000CC1480E090E00895CF93DF931F92CDB7CD
:101DC000DEB741E050E0BE016F5F7F4FFC018485CC
:101DD0000E946C14181619061CF4898190E002C048
:101DE0008FEF9FEF0F90DF91CF910895FC018485D5
:101DF0000C946C140F931F93CF93DF931F92CDB766
:101E0000DEB78C01DC01ED91FC910480F581E02DC1
:101E10000995892B51F0BE016F5F7F4FF8018485D2
:101E20000E94F714898190E002C08FEF9FEF0F901E
:101E3000DF91CF911F910F910895FC0184850C943F
:101E40002615CF92DF92EF92FF920F931F93CF93BD
:101E5000DF93CDB7DEB7AF970FB6F894DEBF0FBEF6
:101E6000CDBF7C018B016A01CE0101960E94E70A79
:101E7000CE0109960E94B711CE018A960E94E70A08
:101E80006AEE72E0CE0184960E94630EBE016C5D24
:101E90007F4FCE0101960E94B225AE01465D5F4F95
:101EA000B801CE0101960E94172881309105C1F436
:101EB000D701ED91FC910484F585E02D87EF91E049
:101EC0009DA38CA30CA51DA52EA53FA50EA31FA306
:101ED00028A739A7A601BE016C5D7F4FC7010995F0
:101EE000AF960FB6F894DEBF0FBECDBFDF91CF9196
:101EF0001F910F91FF90EF90DF90CF900895FC011C
:101F00001382128248EE53E060E070E04483558310
:101F1000668377838DEF91E09183808384E084876B
:101F20000895FC018485843011F00C94B11280E096
:101F30000895DF92EF92FF920F931F93CF93DF9359
:101F4000EC017B018A018C85843009F045C0D12CDD
:101F50008D2D0E94B112811102C0DC8607C08B7FDB
:101F60008831D9F3D39484E0D812F2CF8C858430B1
:101F700099F12091190130911A012F5F3F4F11F40F
:101F800020E030EC30931A0120931901409119019F
:101F900050911A0120E061E00E940313B7016E5FC7
:101FA0007F4FA8018C850E945713811103C084E0E4
:101FB0008C8712C0CE010E94910F873151F061E0F1
:101FC00070E080E090E00E94D908CE010E94910F5D
:101FD000ECCF81E090E002C080E090E0DF91CF9113
:101FE0001F910F91FF90EF90DF900895CF92DF92B5
:101FF000EF92FF92CF93DF93EC018C85843049F10F
:102000000E94AF130E94AA086B017C01CE010E94BE
:10201000910F8823A1F061E070E080E090E00E94E1
:10202000D9080E94AA086C197D098E099F09683E8B
:1020300073408105910550F38C850E94D912EC857F
:10204000F0E0EE0FFF1FEE50FD4F1182108284E092
:102050008C87DF91CF91FF90EF90DF90CF90089524
:10206000CF93DF93EC018C858430D1F0CE010E94B8
:10207000910F8431A9F0882399F0883189F08C314F
:1020800069F4E881F9810480F581E02DCE0109959C
:1020900021E0892B09F420E0822F03C081E001C0F8
:1020A00080E0DF91CF9108950F9300E020E040E0C1
:1020B00060E080E093E00E94F10A0F910895DC0156
:1020C000ED91FC91008CF18DE02D099427EF31E02A
:1020D000FC0131832083FB01418952896389748922
:1020E000FC0142835383648375830895FC018589D1
:1020F00096890895FC01818D928D0895CF93DF9389
:102100001F92CDB7DEB76983DC01ED91FC910280AF
:10211000F381E02D41E050E0BE016F5F7F4F0995F4
:102120000F90DF91CF910895CF93DF93EC01898DCC
:102130009A8D892B41F0E881F9810680F781E02DA5
:10214000CE010995F4CFDF91CF910895CF93DF931E
:10215000EC018C85843061F00E94D912EC85F0E0AE
:10216000EE0FFF1FEE50FD4F1182108284E08C872E
:10217000DF91CF910895FC01108E178A6E5F7F4F1B
:1021800084850C946E15FC0184850C94B415CF9352
:10219000DF93EC019A018F89988DAB01BC018C858E
:1021A0000E9427152F89388D280F391F388F2F8BC4
:1021B000DF91CF9108950F931F93CF93DF931F92D9
:1021C000CDB7DEB78C01FC01818D928D892B59F042
:1021D00041E050E0BE016F5F7F4F84850E946C1428
:1021E000181619061CF08FEF9FEF08C0F801818DBB
:1021F000928D0197928F818F898190E00F90DF916E
:10220000CF911F910F910895CF93DF93EC01898DAA
:102210009A8D009719F48FEF9FEF10C04817590758
:1022200008F0AC018C850E946C14181619069CF7F6
:10223000298D3A8D281B390B3A8F298FDF91CF9149
:102240000895CF93DF931F92CDB7DEB7FC01218DA8
:10225000328D232B49F0BE016F5F7F4F84850E9432
:10226000F714898190E002C08FEF9FEF0F90DF910C
:10227000CF910895FF920F931F93CF93DF93EC01BB
:102280008B018C858430E1F4F12C8F2D0E94B112EA
:10229000811102C0FC8606C08831E1F3F39484E02A
:1022A000F812F3CF8C85843059F01E870D871A8E73
:1022B000198E20E0A80162E00E94031381E001C0B2
:1022C00080E0DF91CF911F910F91FF9008950F93C0
:1022D0001F93CF93DF93CDB7DEB728970FB6F8944F
:1022E000DEBF0FBECDBF8C01DC01ED91FC910284FD
:1022F000F385E02D0995F80184850E94CC14181609
:10230000190644F548E050E0BE016F5F7F4FD801E9
:102310001C968C910E946C1418161906ECF4BE01E0
:102320006F5F7F4FC8010F960E940D0B8D8190E06B
:10233000982F88272E81820F911DF801968B858B0F
:102340008F8190E0982F88272885820F911D928F8A
:10235000818F02C080E090E028960FB6F894DEBF2F
:102360000FBECDBFDF91CF911F910F910895FC015A
:102370001382128248EE53E060E070E0448355839C
:102380006683778381E292E09183808384E084870F
:10239000CF010F960C94E70ACF92DF92EF92FF9253
:1023A0000F931F93CF93DF93CDB7DEB7AF970FB6E1
:1023B000F894DEBF0FBECDBF7C018B016A01CE0158
:1023C00001960E94E70ACE0109960E94B711CE013C
:1023D0008A960E94E70A6AEE72E0CE0184960E9415
:1023E000630EBE016C5D7F4FCE0101960E94B22547
:1023F000AE01465D5F4FB801CE0101960E941728DD
:1024000081309105C1F4D701ED91FC910088F189EB
:10241000E02D87EF91E09DA38CA30CA51DA52EA513
:102420003FA50EA31FA328A739A7A601BE016C5D77
:102430007F4FC7010995AF960FB6F894DEBF0FBE68
:10244000CDBFDF91CF911F910F91FF90EF90DF9063
:10245000CF9008950F9300E020E040E060E086E038
:1024600093E00E94F10A0F910895CF92DF92EF92CC
:10247000FF920F9330E0C12CF2E1DF2EFAE7EF2E4E
:10248000F12C4C155D056E057F0540F4F694E7943C
:10249000D794C7943F5F3630A1F737E041E0432738
:1024A000211102C050E701C050E5242F30E03595DE
:1024B000279523700C70202B252BFC012083417065
:1024C00041830F91FF90EF90DF90CF90089590E0BF
:1024D000982F882744E050E0845F9B4F0C949B1614
:1024E000282F30E02C5F3F4F922F8827860F971FB1
:1024F0000C94CA1662E070E00C947012FB01282F55
:1025000030E02C5F3F4F922F8827642F8E0F9F1F44
:102510000C941116CF93DF93C82FD62F472F64E06A
:1025200070E00E947E124D2F65E070E08C2FDF91ED
:10253000CF910C947E12462F62E070E00C947E12D4
:10254000CF93DF93C82FD62F472F60E170E00E9412
:102550007E124D2F61E170E08C2FDF91CF910C94B2
:102560007E120F931F93CF93DF9300D01F92CDB7AE
:10257000DEB7182F00E021E040E059E06DE370E0A5
:10258000CE0101960E94351289819A810E94310CF8
:1025900063E070E0812F0E9470128B830E944B0CCD
:1025A0008B810F900F900F90DF91CF911F910F9122
:1025B00008950F931F93CF93DF9300D0CDB7DEB76D
:1025C000182F00E021E040E059E06DE370E0CE011B
:1025D00001960E94351289819A810E94310C40E156
:1025E00050E0612F8EE093E00E9494186FEF812FEE
:1025F0000E949B120E944B0C0F900F90DF91CF9185
:102600001F910F910895CF92DF92EF92FF920F9357
:102610001F93CF93DF9300D0CDB7DEB7182FD62E00
:102620007A01C22E8FEF860F8530A8F5812F0E9488
:10263000D91200E021E040E059E06DE370E0CE0106
:1026400001960E94351289819A810E94310C4D2D8C
:102650004C2960E070E0812F0E947E12E114F104A9
:1026600011F0B7010AC060910C0370910D036F5F08
:102670007F4F70930D0360930C03812F0E948A1289
:1026800041E050E0612F8EE093E00E9494180E9498
:102690004B0C81E001C080E00F900F90DF91CF9153
:1026A0001F910F91FF90EF90DF90CF900895CF9200
:1026B000DF92EF92FF920F931F93CF93DF9300D09F
:1026C000CDB7DEB7182F7B016A01FB0180818F3FF8
:1026D00051F481818F3F99F482818F3F81F483810E
:1026E0008F3F69F430C081110AC0FB0181818111E3
:1026F00006C08281811103C08381882321F1C11426
:10270000D10409F100E021E040E059E06DE370E020
:10271000CE0101960E94351289819A810E94310C66
:10272000B701812F0E946712B601812F0E94A0126B
:1027300044E050E0612F8EE093E00E9494180E94E4
:102740004B0C81E001C080E00F900F90DF91CF91A2
:102750001F910F91FF90EF90DF90CF9008950F930E
:102760001F93CF93DF9300D0CDB7DEB7182F00E0D3
:1027700021E040E059E06DE370E0CE0101960E9457
:10278000351289819A810E94310C48E050E0612F16
:102790008EE093E00E9494180E944B0C0F900F90D3
:1027A000DF91CF911F910F910895BF92CF92DF9249
:1027B000EF92FF920F931F93CF93DF9300D01F925E
:1027C000CDB7DEB7B82E6B017A01413088E05807EB
:1027D00018F0E12C98E0F92E00E021E040E059E00B
:1027E0006DE370E0CE0101960E94351289819A81D5
:1027F0000E94310C6B2D8EE093E00E9402178C0139
:1028000063E070E08B2D0E9470128B830E944B0C52
:102810008B81873111F08C3131F40E943C090E1507
:102820001F05D0F202C0E12CF12C00E021E040E0D5
:1028300059E06DE370E0CE0101960E943512898166
:102840009A810E94310C9701A6016B2D8EE093E0D6
:102850000E94C11740E250E06B2D8EE093E00E9491
:1028600094188B2D0E947A1284FD22C063E070E0E0
:102870008B2D0E947012811108C00E944B0C8B2D71
:102880000E94D91280E090E01AC00E944B0C0E9476
:102890003C0900E021E040E059E06DE370E0CE014A
:1028A00001960E94351289819A810E94310CD9CFFC
:1028B00060E18B2D0E949B120E944B0CC7010F9070
:1028C0000F900F90DF91CF911F910F91FF90EF909C
:1028D000DF90CF90BF900895AF92BF92CF92DF92DA
:1028E000EF92FF920F931F93CF93DF9300D0CDB75A
:1028F000DEB7182F5B016A0100E021E040E059E0FB
:102900006DE370E0CE0101960E94351289819A81B3
:102910000E94310C612F8EE093E00E9436177C01FB
:102920000097A1F463E070E0812F0E94701284315F
:1029300019F1882309F121E030E08C3111F420E015
:1029400030E0EE24FF24E21AF30A16C0C816D906B6
:102950000CF476011E141F047CF400E09701A5011D
:10296000612F8EE093E00E94441840E450E0612F14
:102970008EE093E00E9494180E944B0CC7010F90C8
:102980000F90DF91CF911F910F91FF90EF90DF900B
:10299000CF90BF90AF9008950F931F93CF93DF9385
:1029A00000D000D0CDB7DEB7182F00E021E040E026
:1029B00059E06DE370E0CE0101960E9435128981E5
:1029C0009A810E94310C612F8EE093E00E943617AD
:1029D0008B839C830E944B0C8B819C810F900F906A
:1029E0000F900F90DF91CF911F910F910895EF926B
:1029F000FF920F931F93CF93DF9300D0CDB7DEB735
:102A0000182F7B0100E021E040E059E06DE370E029
:102A1000CE0101960E94351289819A810E94310C63
:102A200001E021E030E0A701612F8EE093E00E94F9
:102A300044180E944B0C81E090E00F900F90DF91C2
:102A4000CF911F910F91FF90EF90089508959F925D
:102A5000AF92BF92CF92DF92EF92FF920F931F93AC
:102A6000CF93DF9300D0CDB7DEB7982E6B015A011C
:102A7000790100E021E040E059E06DE370E0CE0133
:102A800001960E94351289819A810E94310C692D2C
:102A90008EE093E00E9402178E159F0530F4692D99
:102AA0008EE093E00E9402177C0187019501A60148
:102AB000692D8EE093E00E9452170E944B0CC701D3
:102AC0000F900F90DF91CF911F910F91FF90EF909A
:102AD000DF90CF90BF90AF909F900895CF92DF92FC
:102AE000EF92FF920F931F93CF93DF9300D0CDB758
:102AF000DEB7182F7B016A01FB018081811109C0BB
:102B00008181811106C08281811103C08381882364
:102B1000F1F0C114D104D9F000E021E040E059E027
:102B20006DE370E0CE0101960E94351289819A8191
:102B30000E94310CB701812F0E946712B601812FCC
:102B40000E94A0120E944B0C81E090E002C080E045
:102B500090E00F900F90DF91CF911F910F91FF9018
:102B6000EF90DF90CF9008950F931F93CF93DF9353
:102B700000D0CDB7DEB7182F00E021E040E059E0EB
:102B80006DE370E0CE0101960E94351289819A8131
:102B90000E94310C40E250E0612F8EE093E00E94F1
:102BA0009418812F0E947A1284FD21C0812F0E94E7
:102BB0007A1283FF09C068E1812F0E949B120E9454
:102BC0004B0C80E090E01BC00E944B0C0E943C0923
:102BD00000E021E040E059E06DE370E0CE010196B5
:102BE0000E94351289819A810E94310CDACF60E10E
:102BF000812F0E949B120E944B0C81E090E00F906D
:102C00000F90DF91CF911F910F9108958EBD00001D
:102C10000DB407FEFDCF8EB508952A9808952A9A1F
:102C200008951F93CF93DF9300D0CDB7DEB7182F51
:102C30006A8399830E940D1680EF0E94061699817F
:102C4000892F0E940616812F0E9406166A81862F00
:102C50000E9406160E940F1681E00F900F90DF91E0
:102C6000CF911F910895CF93DF93EC016CE271E057
:102C700080E090E00E94D9080E94A418229A8091D6
:102C80002003882399F09FB7F89480912003813026
:102C900059F48DB380931E032DB380911F0380954B
:102CA00082238DBB9FBF02C090931E0380E58CBD25
:102CB0001DBC60E880E090E00E94111665E58BE1A4
:102CC00090E00E94111665E58AE190E00E941116DD
:102CD00080912003882361F09FB7F894209120030E
:102CE00080911E03213019F48DBB9FBF01C08FBF9F
:102CF00080E090E49983888380E090E699878887D4
:102D000080E098E49B838A8380E098E69B878A87AB
:102D100080E090E59D838C8380E090E79D878C87A1
:102D200080E098E59F838E8380E098E79F878E8779
:102D3000DF91CF910895CF92DF92EF92FF920F93A0
:102D40001F93CF93DF93EC017A018B016C01C40ECA
:102D5000D51ECC15DD05A1F00E940D1680EF0E9456
:102D600006168D2F0E9406168C2F0E94061621969D
:102D7000F80181918F010E9406160E940F16E9CF7B
:102D8000C701DF91CF911F910F91FF90EF90DF90DE
:102D9000CF9008951F93CF93DF931F92CDB7DEB7E7
:102DA000182F99830E940D168FE00E9406169981B4
:102DB000892F0E940616812F0E94061680E00E942D
:102DC000061689830E940F1689810F90DF91CF919B
:102DD0001F9108951F93CF93DF93182F60E270E047
:102DE0000E947012C82FD0E061E270E0812F0E9433
:102DF0007012DC2FCC279E01282BC901DF91CF91C7
:102E00001F910895FF920F931F93CF93DF93F62E98
:102E1000C0E0D0E08F2D0E94EA168C01009721F0CF
:102E20008F2D0E94EA16EC01C017D10799F7CE0149
:102E3000DF91CF911F910F91FF9008951F93CF9332
:102E4000DF93182F66E270E00E947012C82FD0E066
:102E500067E270E0812F0E947012DC2FCC279E0168
:102E6000282BC901DF91CF911F910895FF920F93F5
:102E70001F93CF93DF93F62EC0E0D0E08F2D0E94FA
:102E80001E178C01009721F08F2D0E941E17EC0158
:102E9000C017D10799F7CE01DF91CF911F910F9104
:102EA000FF9008956F927F929F92AF92BF92CF92C0
:102EB000DF92EF92FF920F931F93CF93DF931F92B6
:102EC000CDB7DEB7D82E962E3A01590164E270E0F4
:102ED000892D99830E947012E82EF12C65E270E032
:102EE000892D0E947012FE2CEE24E82AE60CF71CB5
:102EF000970137706D2C9981792E690C711C690CC2
:102F0000711CD301ED91FC91E20FF31FC901800FF9
:102F1000911F81309840A0F0C12C48E0D42EC21AF5
:102F2000D30AA601B501CF010E949B16A8014C1936
:102F30005D09B5016C0D7D1DF3018081918103C098
:102F4000A801B501CF010E949B16E00EF11E4F2D86
:102F500064E270E0892D0E947E124E2D65E270E0E1
:102F6000892D0F90DF91CF911F910F91FF90EF90DE
:102F7000DF90CF90BF90AF909F907F906F900C9418
:102F80007E120F931F9389019A0140E050E00E9446
:102F900052171F910F910895CF92DF92EF92FF92F7
:102FA0000F931F93CF93DF93EC017A018B016C0198
:102FB000C40ED51ECC15DD05A9F00E940D168FE0BC
:102FC0000E9406168D2F0E9406168C2F0E94061650
:102FD000219680E00E940616F80181938F010E94DD
:102FE0000F16E8CFC701DF91CF911F910F91FF908E
:102FF000EF90DF90CF900895AF92BF92CF92DF9283
:10300000EF92FF920F931F93CF93DF9300D0CDB732
:10301000DEB75A8349835901E981FA81F7707C014F
:10302000E60EF11CE60EF11CD70118968D919C91CD
:1030300019978E0F9F1F98012E0F3F1F2130384088
:1030400098F0C12C68E0D62ECE1ADF0AA601B50191
:103050000E94CC17A8014C195D09B5016C0D7D1DAE
:10306000F7018085918502C0A801B5010F900F90EE
:10307000DF91CF911F910F91FF90EF90DF90CF9054
:10308000BF90AF900C94CC178F929F92AF92BF924B
:10309000CF92DF92EF92FF920F931F93CF93DF9324
:1030A0006C01962E5A017901802E68E270E0892D1C
:1030B0000E947012C82FD0E069E270E0892D0E9452
:1030C0007012DC2FCC27C82B87019501AE01692D2A
:1030D000C6010E94FC1781101AC0CE0DDF1D4D2FB6
:1030E00068E270E0892D0E947E124C2F69E270E048
:1030F000892DDF91CF911F910F91FF90EF90DF907D
:10310000CF90BF90AF909F908F900C947E12DF91E4
:10311000CF911F910F91FF90EF90DF90CF90BF90D4
:10312000AF909F908F900895CF93C62F61E070E08D
:103130008C2F0E947E1261E070E08C2F0E94701232
:103140008111F9CFCF910895CF93CFB7F8948091A3
:103150002103811127C0EAE9F0E08491E6E8F0E07C
:103160009491E82FF0E0EE0FFF1FE255FF4FA5917D
:10317000B4918C91892321F461E08AE00E949F0937
:1031800061E08AE00E9466098CB580618CBD8CB5D7
:1031900080648CBD61E08DE00E94660961E08BE097
:1031A0000E946609809121038F5F80932103CFBF26
:1031B000CF910895EF92FF920F931F93CF93DF93D8
:1031C000FB013196F4903196E22ED90160E870E06F
:1031D0008A2F8E198F1518F59F01285F3F4F10E039
:1031E00004910150110F802F869586958695EA01EE
:1031F000C80FD11D888190E00770EB0102C0D59502
:10320000C7950A95E2F78C239D23892B09F011605D
:103210003196E217F30721F7F9011D93D9CFDF911A
:10322000CF911F910F91FF90EF900895FB01608166
:103230007181828193810E943F296083718382839F
:1032400093830895CF93DF93CDB7DEB727970FB65B
:10325000F894DEBF0FBECDBF9B0147E0FB01DE014E
:10326000119601900D924A95E1F7AE014F5F5F4FC5
:1032700068EB70E00E94DA1827960FB6F894DEBF6C
:103280000FBECDBFDF91CF910895EF92FF920F93C4
:103290001F93CF93DF93CDB7DEB7A0970FB6F89407
:1032A000DEBF0FBECDBF8C014D8F5E8F6F8F78A3B9
:1032B0007901198E1A8E1B8E1C8E9E012F5E3F4F38
:1032C000AE01435E5F4F66E472E00E94DA18D701F8
:1032D000CE014896FE0171963D91208123272193CE
:1032E000E817F907C9F759894A893B892C899D89CB
:1032F0008E8919821A821B821C821D821E821F8265
:10330000188659874A873B872C879D878E871F861B
:10331000188A9E012F5F3F4FAE01475F5F4F62EFFC
:1033200070E0C8010E94DA1879816A815B814C8162
:103330003D812E819F818885798B6A8B5B8B4C8B3D
:103340003D8B2E8B9F8B888F498D5A8D6B8D7C8DFD
:10335000DE01519688E792E02D91E22FF0E0F5959D
:10336000E795E80FF91FE49120FFE295EF7024E064
:10337000440F551F661F771F2A95D1F74E2B809655
:1033800023E08837920741F7498F5A8F6B8F7C8FE4
:10339000BE01675E7F4FC8010E9416199E012F5F14
:1033A0003F4FAE01475E5F4F64E272E0C8010E948A
:1033B000DA1869817A818B819C81A0960FB6F89486
:1033C000DEBF0FBECDBFDF91CF911F910F91FF9058
:1033D000EF9008954F925F926F927F928F929F929B
:1033E000AF92BF92CF92DF92EF92FF920F931F9313
:1033F000CF93DF93CDB7DEB765970FB6F894DEBFF6
:103400000FBECDBF8C015B0179019E012F5F3F4F45
:1034100062EE71E00E94DA189E01275F3F4FA7011C
:1034200066E671E0C8010E94DA18E12CF12C5CEF2D
:10343000C52E5EE7D52EBE01675F7F4FC8010E9493
:1034400022194701880C991CC601082C02C09595C9
:1034500087950A94E2F780FF06C0BE01675F7F4F41
:10346000C8010E9422199E01205F3F4FAE01475FB5
:103470005F4F64E371E0C8010E94DA184D815E81FC
:103480006F8178859E01205F3F4FC8010E944519DA
:1034900049805A806B807C8046265726682679268C
:1034A00049825A826B827C82BE01675F7F4FC8016E
:1034B0000E9422192FEF821A920AC60102C0959526
:1034C00087958A94E2F780FF06C0BE01675F7F4F51
:1034D000C8010E9422199E01205F3F4FAE01475F45
:1034E0005F4F64E371E0C8010E94DA1849815A8194
:1034F0006B817C819E01205F3F4FC8010E9445196E
:103500004D805E806F80788464257525862597259B
:103510006D837E838F8398872FEFE21AF20A28E06B
:10352000E216F10409F087CFC980DA80EB80FC80D5
:10353000DC01CB018C259D25AE25BF25C826D926CB
:10354000EA26FB26C982DA82EB82FC828C259D2545
:10355000AE25BF258D839E83AF83B8879501AE01CD
:103560004F5F5F4F60EA71E0C8010E94DA1865960C
:103570000FB6F894DEBF0FBECDBFDF91CF911F9184
:103580000F91FF90EF90DF90CF90BF90AF909F9002
:103590008F907F906F905F904F900895E8E3F3E0F5
:1035A000108211821282138214821582168217826F
:1035B000109241031092400341E050E06EEF7EE133
:1035C00081E00C942E20FC018FEF9FEF918380838C
:1035D0008EE591E0938382838AE090E095838483F3
:1035E00081E086838CE390E090934D0480934C04BB
:1035F0009093370380933603EEE4F4E01082118257
:10360000128213821482158216821782E8E3F3E095
:1036100010821182128213821482158216821782FE
:10362000089561111BC010924E0410924F04109225
:1036300050041092510410925204109253041092AC
:10364000540410925504109257041092560441E00D
:1036500050E06BE77EE180E00C942E20613011F4A5
:103660000C94CE1A0895611111C020914E0430912E
:103670004F04409150045091510460915204709154
:103680005304809154049091550412C06130B9F4F0
:10369000209138033091390340913A0350913B0314
:1036A00060913C0370913D0380913E0390913F03F4
:1036B000E1E0A0E00E94B32919F4E0E001C0089520
:1036C0008E2F0895611111C010924E0410924F0474
:1036D000109250041092510410925204109253040C
:1036E00010925404109255040895613081F41092A0
:1036F00038031092390310923A0310923B03109250
:103700003C0310923D0310923E0310923F03089534
:10371000611111C020914E0430914F04409150042A
:10372000509151046091520470915304809154045B
:10373000909155040895613089F4209138033091B7
:10374000390340913A0350913B0360913C037091DF
:103750003D0380913E0390913F03089508956111C8
:1037600005C0209156043091570408C0613029F4F7
:10377000209140033091410301C00895C90108958B
:10378000611105C0209158043091590408C061307E
:1037900029F4209142033091430301C00895C901E7
:1037A0000895611105C020915A0430915B0408C04E
:1037B000613029F4209144033091450301C00895FC
:1037C000C90108952F923F924F925F926F927F921C
:1037D0008F929F92AF92BF92CF92DF92EF92FF9221
:1037E0000F931F93CF93DF93CDB7DEB764970FB6D8
:1037F000F894DEBF0FBECDBF1C01788B6F87DB0155
:1038000050968D919C9151976FE170E00E94EA284B
:103810007A8369834B01A12CB12CEF85F889A081B3
:10382000B1819B010E9455290E94F1292AE037EDC0
:1038300043E25CE30E947F2A0E94C5296B017C0160
:1038400029813A81A3E0B0E00E9446292B013C0186
:103850004C185D086E087F084B825C826D827E8208
:1038600026013701460E571E681E791E4F82588664
:1038700069867A86E1E0F0E020E030E040E050E068
:1038800060E070E080E090E0240135014C185D08B4
:103890006E087F084B865C866D867E862601370122
:1038A000480C591C6A1C7B1C498A5A8A6B8A7C8A80
:1038B000E215F30508F084C0DF011896AA0FBB1FBC
:1038C0006F847888A60DB71D0D90BC91A02D4D0179
:1038D000A12CB12CEB84FC840D851E85E814F90421
:1038E0000A051B0548F549885A886B887C8884142A
:1038F0009504A604B70400F5DF011996AA0FBB1FB3
:103900006F847888A60DB71D0D90BC91A02D2D0158
:10391000612C712CEB80FC800D811E81E414F50478
:103920000605170548F4EF80F88409851A854E14BA
:103930005F0460067106A8F14B805C806D807E801C
:10394000481459046A047B0480F5EF80F8840985E3
:103950001A858E149F04A006B10638F5DF0119966A
:10396000AA0FBB1F4F845888A40DB51D0D90BC91A4
:10397000A02D4D01A12CB12CEB84FC840D851E855E
:10398000E814F9040A051B0580F449885A886B88F5
:103990007C8884149504A604B70438F4A1E00E943E
:1039A0009E2901E00E94672909C0F10120E030E072
:1039B00040E050E060E070E080E090E0329678CF48
:1039C00001E00E94822907E02016310460F1AF85F2
:1039D000B88912962C93129713963C9313971496CA
:1039E0004C93149715965C93159716966C931697AF
:1039F00017967C93179718968C93189719969C9303
:103A00001997369427941B963C922E921A974980C8
:103A10005A801D965C924E921C97E1E0F0E01F9652
:103A2000FC93EE931E97E1E0A0E00E94B32909F415
:103A3000E0E08E2F64960FB6F894DEBF0FBECDBFC8
:103A4000DF91CF911F910F91FF90EF90DF90CF907A
:103A5000BF90AF909F908F907F906F905F904F90AE
:103A60003F902F9008952F923F924F925F926F92C6
:103A70007F928F929F92AF92BF92CF92DF92EF92FE
:103A8000FF920F931F93CF93DF93CDB7DEB762976B
:103A90000FB6F894DEBF0FBECDBF9A8389837A8BB1
:103AA000698BDB0150968D919C9151976EE070E08F
:103AB0000E94EA287C836B836B01E12CF12CE9895D
:103AC000FA89A081B1819B010E9455290E94F129A8
:103AD0002AE037ED43E25CE30E947F2A0E94C52979
:103AE00046015701880C991CAA1CBB1C1401250116
:103AF000261A370A480A590A2D823E824F82588672
:103B0000860E971EA81EB91EF2E06F2E712C20E0C3
:103B100030E040E050E0B0E0A0E000E010E016014E
:103B20002701261A370A480A590A29863A864B86F7
:103B30005C86140125012C183D084E085F082D866F
:103B40003E864F86588A29803A806214730408F0B2
:103B500089C0F3013896EE0FFF1F49885A88E40D9B
:103B6000F51D0190F081E02D6F01E12CF12C2984ED
:103B70003A844B845C842C143D044E045F0448F565
:103B80002D843E844F845888C214D304E404F50481
:103B900000F5F3013996EE0FFF1F49885A88E40DAE
:103BA000F51D0190F081E02D1F01412C512C6D81FC
:103BB0007E818F819885621573058405950548F48B
:103BC000281439044A045B0420F46B2F7A2FC801AF
:103BD00034C02D803E804F8058842C143D044E0408
:103BE0005F0490F5C814D904EA04FB0468F5F301F6
:103BF0003996EE0FFF1F49885A88E40DF51D019094
:103C0000F081E02D6F01E12CF12C29843A844B8462
:103C10005C842C143D044E045F04B0F42D843E8477
:103C20004F845888C214D304E404F50468F46B2F5D
:103C30007A2FC801A1E00E949E2901E00E94672915
:103C4000B62FA72F8C010AC069807A8020E030E06F
:103C500040E050E0B0E0A0E000E010E062E0660E7E
:103C6000711C71CF6B2F7A2FC80101E00E9482294D
:103C7000D101A730B105F8F0E989FA8922833383AD
:103C8000448355836683778380879187F101F69516
:103C9000E795A989BA891B96FC93EE931A972B8016
:103CA0003C801D963C922E921C97E4E0F0E01F961B
:103CB000FC93EE931E97E1E0A0E00E94B32909F483
:103CC000E0E08E2F62960FB6F894DEBF0FBECDBF38
:103CD000DF91CF911F910F91FF90EF90DF90CF90E8
:103CE000BF90AF909F908F907F906F905F904F901C
:103CF0003F902F900895CF92DF92EF92FF920F9313
:103D00001F93CF93DF930E94B6086B017C018091D3
:103D1000320390913303E601C81BD90BD0933103D2
:103D2000C0933003C93F81E1D807C0F180915C04A2
:103D300090915D049C01285C31092C173D0750F5DA
:103D400088539F4FC817D90728F580912E0390916B
:103D50002F03019690932F0380932E0300912C0341
:103D600010912D030150110910932D0300932C0382
:103D7000029781F46CE474E0C8010E94E21B811197
:103D800005C06CE474E0C8010E94331D10922F033B
:103D900010922E0310922D0310922C0380912C036D
:103DA00090912D038338910540F010922D031092CD
:103DB0002C0310922F0310922E03E0912C03F0910C
:103DC0002D03CF01019690932D0380932C03EE0FCA
:103DD000FF1FE45AFB4FD183C083C0923203D092BD
:103DE0003303E0923403F0923503DF91CF911F91BA
:103DF0000F91FF90EF90DF90CF900895CF92DF92D8
:103E0000EF92FF920F931F93CF93DF930E94B60818
:103E10006B017C018091280390912903E601C81B66
:103E2000D90BD0932703C0932603C93F81E1D8075C
:103E3000C0F180914603909147039C01285C3109B1
:103E40002C173D0750F588539F4FC817D90728F501
:103E500080912403909125030196909325038093EC
:103E600024030091220310912303015011091093A0
:103E7000230300932203029781F466E373E0C801F1
:103E80000E94E21B811105C066E373E0C8010E9435
:103E9000331D1092250310922403109223031092D5
:103EA000220380912203909123038338910540F0EF
:103EB00010922303109222031092250310922403E0
:103EC000E0912203F0912303CF0101969093230305
:103ED00080932203EE0FFF1FEA5BFC4FD183C08368
:103EE000C0922803D0922903E0922A03F0922B0378
:103EF000DF91CF911F910F91FF90EF90DF90CF90C6
:103F00000895FC017183608328EE33E0DA010E949A
:103F1000552962837383848395830895CF92DF92BA
:103F2000EF92FF920F931F93CF93DF93EC010E94C8
:103F3000AA086E837F838887998788819981892BD6
:103F400081F10E94AA080A811B812C813D81CE80CB
:103F5000DF80E884F9840C0D1D1D2E1D3F1D6017A8
:103F6000710782079307E8F488819981DC01ED915C
:103F7000FC910480F581E02D0995181619060CF7BF
:103F800088819981DC01ED91FC910680F781E02D1B
:103F9000DF91CF911F910F91FF90EF90DF90CF9025
:103FA000099480E090E0DF91CF911F910F91FF90F5
:103FB000EF90DF90CF9008959F92AF92BF92CF92F3
:103FC000DF92EF92FF920F931F93CF93DF936C01D9
:103FD0008B017A01EB0109900020E9F72197C61BBC
:103FE000D70B4115510541F0FA0101900020E9F786
:103FF00031979E2E941A01C0912CF801808188235C
:10400000A9F0B12CA12C04C0A12C911011C0B12C8D
:10401000C6010E948E1F8823A9F0D801AA0DB11DE8
:104020009C918913F1CFA394AC1678F381E00AC078
:10403000D701AB0DB11D9C918913E9CFB394B9148D
:1040400038F380E0DF91CF911F910F91FF90EF90B7
:10405000DF90CF90BF90AF909F9008958230E8F4AA
:10406000E82FF0E0EE0FFF1FEE59FA4F71836083E7
:10407000813041F0809169008C7F842B80936900AE
:10408000E89A089580916900440F551F440F551F09
:10409000837F842B80936900E99A08951F920F9281
:1040A0000FB60F9211242F933F934F935F936F930B
:1040B0007F938F939F93AF93BF93EF93FF938091E1
:1040C000620590916305892B29F0E0916205F091DA
:1040D00063050995FF91EF91BF91AF919F918F91EA
:1040E0007F916F915F914F913F912F910F900FBEF4
:1040F0000F901F9018951F920F920FB60F921124D8
:104100002F933F934F935F936F937F938F939F93DF
:10411000AF93BF93EF93FF938091640590916505F2
:10412000892B29F0E0916405F09165050995FF91CF
:10413000EF91BF91AF919F918F917F916F915F911F
:104140004F913F912F910F900FBE0F901F90189598
:104150000C94E22A0E9624E1FC0111922A95E9F7CB
:104160000895CF93DF93EC01625F7F4F0E94FD0AB9
:10417000CE01DF91CF910895CF93DF93EC016E5E76
:104180007F4F0E94FD0ACE01DF91CF910895CF931A
:10419000DF93EC016A5E7F4F0E94FD0ACE01DF9142
:1041A000CF910895CF93DF93EC01625E7F4F0E9421
:1041B000FD0ACE01DF91CF91089580E3FB0180835A
:1041C0003296842F82958F7090E1899F4019112437
:1041D0004A3014F4405D01C0495C4293882311F0D9
:1041E000482FEFCF08950F9300E020E040E060E01B
:1041F00086E695E00E94F10A0F9108956F927F92F2
:104200008F929F92AF92BF92CF92DF92EF92FF92E6
:104210000F931F93CF93DF93CDB7DEB7AC970FB655
:10422000F894DEBF0FBECDBF7C01862EB42EA52E26
:1042300020E2922ECE0101966C01FC01292D1192F3
:104240002A95E9F70FEF2FEF4FEF6FEF86960E9459
:10425000F10A87EF91E09AA389A389A59AA5ABA556
:10426000BCA58BA39CA3ADA3BEA38701095B1F4F75
:1042700043E450E0BE016F5D7F4FC8010E94BB1058
:10428000019609F4BFC081E089838A8386E0782E95
:104290007B821C82F70164817581868197810E94EF
:1042A0003F296D837E838F839887A986BA8680E8AD
:1042B00090E09C878B874CE150E0B601C8010E94DA
:1042C000C710F601292D11922A95E9F7570188E0C8
:1042D000A80EB11CF501D60101900D927A94E1F778
:1042E00040E150E0B601C8010E94C710F6011192EA
:1042F0009A94E9F796E0692E712C40E250E0B601FD
:10430000C8010E94C710F1E06F1A7108B1F783E687
:10431000898392E89A8393E59B838C8385E38D83DD
:1043200081E08E838F829DE3988797E099878A87C3
:1043300086E0F501DE011B9601900D928A95E1F76A
:104340008CE0898B8A8B61E472E0CE0143960E94F7
:10435000462DF7014385BE01675E7F4FC7010E946E
:10436000DD20F7014485BE01655E7F4FC7010E94D5
:10437000DD20F7014585BE01635E7F4FC7010E94C6
:10438000DD204EE150E0B601C8010E94C710F3E005
:104390008F121EC082E3898384E08A83F7019685A9
:1043A0009B8397859C8390899D8391899E8396E3C7
:1043B0009F838887828D8987838D8A87848D8B8769
:1043C000858D8C874CE050E0B601C8010E94C71073
:1043D00087E3898386E08A8391E09B8393E09C83D3
:1043E0008D838FE08E838AE38F838BE388878FEFC3
:1043F000898749E050E0B601C8010E94C710C80192
:104400000E94C310AC960FB6F894DEBF0FBECDBFAE
:10441000DF91CF911F910F91FF90EF90DF90CF90A0
:10442000BF90AF909F908F907F906F9008952F9244
:104430003F924F925F926F927F928F929F92AF9234
:10444000BF92CF92DF92EF92FF920F931F93CF9381
:10445000DF93CDB7DEB7E3970FB6F894DEBF0FBE9C
:10446000CDBF7C012A013B0169010E94AA084B01D2
:104470005C018701095B1F4FC8010E946711181674
:10448000190694F00E94AA08681979098A099B09FB
:104490004616570668067906F0F062E370E080E0A1
:1044A00090E00E94D908E8CF42E250E0BE016F5F81
:1044B0007F4FC8010E9404118981823031F4F801D4
:1044C000858996898334910541F019A6C8010E9417
:1044D000941089A566C18FEF64C16D817E818F8143
:1044E00098850E943F294B015C01F601608371832E
:1044F0008283938346E050E0B701685F7F4FCE012F
:104500004D960E94302D892B99F4F701808191817D
:10451000A281B38188169906AA06BB0648F0848159
:104520009581A681B78188159905AA05BB0528F450
:10453000C8010E94941080E034C189899A89AB89AE
:10454000BC89F70186879787A08BB18B3EECC32E81
:10455000D12CC8010E94DB10F1E0CF1AD108C9F7B5
:1045600019A6C70182969BA78AA7F701B696FDA751
:10457000ECA708969FA78EA73C976F018E9699ABE4
:1045800088AB3897FBABEAAB5701F6E1AF0EB11C35
:1045900047018EE1880E911CC8010E947A101816FE
:1045A00019060CF093CFC8010E94DB1083339105EC
:1045B00009F4CDC0F4F481309105B9F11CF4892BD4
:1045C00059F3DFC083309105C1F1069709F0D9C0D6
:1045D000C8010E94DB103C0144E050E0B401C80176
:1045E0000E940411212C312C7724F4E06F1A7108F9
:1045F0003FC08A33910509F47EC03CF485339105B0
:1046000061F0C69709F43FC0BCC08B33910509F433
:1046100088C08F3F910501F2B4C0C8010E94DB1031
:10462000C8010E94DB1089A7B7CFC8010E94DB1028
:1046300044E050E06AA97BA93AC0C8010E94DB109F
:104640003C0144E050E0B501C8010E940411212C56
:10465000312C772494E0691A7108261437040CF081
:104660009BCFC8010E94DB10EFEF2E1A3E0AF5CF58
:10467000261437040CF090CFC8010E94DB108FEF96
:10468000281A380AF5CFC8010E94DB10782EF701EE
:10469000828D811110C0838D81110DC0848D811197
:1046A0000AC0858D811107C044E050E0B601C80101
:1046B0000E94041171CFE8A9F9A9208031804280BD
:1046C0005380B601CE0183960E94FD0A8DA19EA162
:1046D000AFA1B8A582159305A405B50529F3212C32
:1046E000312C721409F458CFC8010E94DB10FFEF7F
:1046F0002F1A3F0AF6CFC8010E94DB1044E050E0B9
:104700006CA57DA5C8010E940411F70166A177A1DF
:1047100080A591A50E943F2966A377A380A791A7B2
:104720003BCFC8010E94DB1044E050E06EA57FA59E
:10473000C8010E940411F70162A573A584A595A57F
:104740000E943F2962A773A784A795A725CFC80118
:104750000E94DB1044E050E06AA57BA5C8010E94DE
:104760000411F70162A173A184A195A10E943F29C0
:1047700062A373A384A395A366A777A780AB91AB2D
:104780000BCFC8010E94DB10382E612C712C36141F
:1047900009F402CFC8010E94DB10FFEF6F1A7F0AF5
:1047A000F6CFE3960FB6F894DEBF0FBECDBFDF9114
:1047B000CF911F910F91FF90EF90DF90CF90BF901E
:1047C000AF909F908F907F906F905F904F903F90B1
:1047D0002F9008952F923F924F925F926F927F9207
:1047E0008F929F92AF92BF92CF92DF92EF92FF9201
:1047F0000F931F93CF93DF93CDB7DEB727970FB6F5
:10480000F894DEBF0FBECDBF8C0120ED37E040E055
:1048100050E061E070E080E090E00E94CE28D80196
:1048200014966D937D938D939C931797F8016083F5
:104830007183828393834801F7E48F0E911CC40136
:104840000E94A61064E470E0C4010E943A1188231B
:1048500009F428C10E94AA086B017C01A12CB12C8B
:104860001D82180186E4280E311CD801DE96BF8314
:10487000AE8338EE432E33E0532E612C712CF101C0
:104880008081833009F4FDC081111FC0F80184814B
:104890009581A681B7810196A11DB11D8483958361
:1048A000A683B7830E94AA086C197D098E099F0907
:1048B000A30192010E94FE28A90161E0C8010E94A3
:1048C000FE2081E0D1018C93BEC08430F9F4F80160
:1048D00084819581A681B7810196A11DB11D848334
:1048E0009583A683B7830E94AA086C197D098E0957
:1048F0009F09A30192010E94FE28A90163E0C8015B
:104900000E94FE20E2E0D101EC939DC0813061F570
:10491000AE81BF814D915D916D917C919E012F5F24
:104920003F4FC8010E9417228D83823009F08BC04F
:1049300089819A81AB81BC81F80184839583A683A8
:10494000B7830E94AA086C197D098E099F09A301EB
:1049500092010E94FE28A90163E0C8010E94FE2086
:10496000ED81D101EC9375C0823009F06CC0AE814D
:10497000BF814D915D916D917C919E012F5F3F4F65
:10498000C8010E9417228D83853009F056C083E04C
:10499000F1018083F80182A193A1A4A1B5A1892B83
:1049A0008A2B8B2B41F484E893E0A0E0B0E082A353
:1049B00093A3A4A3B5A3F80186A197A1A0A5B1A52F
:1049C000892B8A2B8B2B61F482A193A1A4A1B5A181
:1049D000B695A7959795879586A397A3A0A7B1A706
:1049E000D8019A964D915D916D917C919D97969687
:1049F0008D919D910D90BC91A02D452B462B472B61
:104A000059F4AC01BD01440F551F661F771FF80113
:104A100042A753A764A775A7F80186A797A7A0ABDD
:104A2000B1AB82A593A5A4A5B5A582AB93ABA4AB6E
:104A3000B5ABAA24A394B12C0CC0FD81F63019F4B7
:104A4000D1011C9206C0BD81BF3F19F4F101108253
:104A50001D82F1E0AF16B10409F411CF0E94AA083B
:104A60006C197D098E099F09D801DA962D913D9127
:104A70004D915C91DD97261737074807590708F0D5
:104A8000FECEC4010E94A610F80184819581A68102
:104A9000B7810196A11DB11D84839583A683B78339
:104AA000C50102C080E090E027960FB6F894DEBF03
:104AB0000FBECDBFDF91CF911F910F91FF90EF906F
:104AC000DF90CF90BF90AF909F908F907F906F902E
:104AD0005F904F903F902F900895CF92DF92EF928A
:104AE000FF920F931F93CF93DF93EC016B011AA2F8
:104AF0001BA21CA21DA21EA21FA218A619A61AA6BE
:104B00001BA61CA61DA61EAA1FAA18AE19AE2AAF68
:104B10003BAF4CAF5DAFFC01FE96E082F1820283B9
:104B200013838C01085F1F4F86E0F80111928A956C
:104B3000E9F7CE010E94AA2086E0F601D801019093
:104B40000D928A95E1F7FE01EA5BFF4F1082CE01DC
:104B5000DF91CF911F910F91FF90EF90DF90CF9059
:104B60000C94EA23FB014281538164817581FC012D
:104B70004283538364837583178216820895CF938B
:104B8000FB0181918111FDCFFB0180E090E020E0ED
:104B900030E0CAE06191662309F12430310564F503
:104BA0006E3271F48F3F910509F034F5DA01A20FEE
:104BB000B31F12968C932F5F3F4F80E090E0EACFB7
:104BC000DC01CA9FC001CB9F900D1124772767FDA0
:104BD000709560537109860F971FDCCF8F3F910549
:104BE00009F054F4243031053CF4FA01E20FF31FCC
:104BF000828381E090E002C080E090E0CF91089550
:104C00000F9300E020E040E060E08CE695E00E9439
:104C1000F10A0F910895AF92BF92CF92DF92EF9277
:104C2000FF920F931F93CF93DF9300D01F92CDB7C6
:104C3000DEB76C017B010E94AA08F60177836683C8
:104C40008601085F1F4FB6016A5F7F4F42E050E068
:104C5000C8010E94C71081E090E09A83898342E0F6
:104C600050E0BE016F5F7F4FC8010E94C71080E017
:104C700091E09A83898342E050E0BE016F5F7F4FED
:104C8000C8010E94C7101A82198242E050E0BE019A
:104C90006F5F7F4FC8010E94C71042E050E0BE0125
:104CA0006F5F7F4FC8010E94C71042E050E0BE0115
:104CB0006F5F7F4FC8010E94C7106701F6018081B6
:104CC000882311F1F7016F018191811115C05601FF
:104CD000AE18BF081A141B0494F4AB8241E050E0F4
:104CE000BE016D5F7F4FC8010E94C710A501B701CB
:104CF000C8010E94C71003C08E3229F7E8CF7601A1
:104D0000FFEFEF1AFF0ADACF1B8241E050E0BE014D
:104D10006D5F7F4FC8010E94C710E12CFF24F39400
:104D2000FA82E98242E050E0BE016F5F7F4FC80126
:104D30000E94C710FA82E98242E050E0BE016F5F34
:104D40007F4FC8010E94C71081E090E00F900F9044
:104D50000F90DF91CF911F910F91FF90EF90DF9017
:104D6000CF90BF90AF9008954F925F926F927F92D5
:104D70008F929F92AF92BF92CF92DF92EF92FF926B
:104D80000F931F93CF93DF93CDB7DEB763970FB623
:104D9000F894DEBF0FBECDBF7C015B016A010E94AB
:104DA000AA082B013C018701085F1F4F4501A12C78
:104DB000B12CC8010E9467111816190694F00E94C0
:104DC000AA08641975098609970986169706A80620
:104DD000B906D0F062E370E080E090E00E94D9086C
:104DE000E8CFF7014281538164817581818D928D75
:104DF000A38DB48D481759076A077B0741F4858D49
:104E0000968DC59721F406C08FEF9FEFF9C08EEF06
:104E10009FEFF6C0C8010E947A100C970CF4EEC008
:104E20004CE050E0BE016F5F7F4FC8010E9404114B
:104E30008B819C819827892798279A8B898BF701EA
:104E40004681578129813A814217530711F497FD12
:104E500006C0C8010E9494108CEF9FEFD1C08F70E4
:104E60009270892B31F0C8010E9494108BEF9FEF54
:104E7000C7C0AF80B884BA24AB24BA24A114B1044B
:104E800019F0E12CF12C23C0C8010E9494108AEF84
:104E90009FEFB6C041E050E0BE01635F7F4FC801A5
:104EA0000E9404118D8581111BC08D858111F2CF67
:104EB000C8010E94DB10C8010E94DB10C8010E94DB
:104EC000DB10C8010E94DB10FFEFEF1AFF0A8D8193
:104ED0009E81982789279827E816F906D8F20AC0F4
:104EE0008D859FEF980F9D878823F9F2C8010E9456
:104EF000DB10F6CFE12CF12C41E050E0BE016D5EFD
:104F00007F4FC8010E9404118B89982F907C61F417
:104F1000882371F08B899FEF980F9B8B882341F03A
:104F2000C8010E94DB10F6CFC8010E94DB101B8A6B
:104F30008B898111E1CF42E050E0BE01615F7F4F7C
:104F4000C8010E94041142E050E0BE01635F7F4F40
:104F5000C8010E940411C8010E94DB10C8010E9410
:104F6000DB10C8010E94DB10C8010E94DB1042E088
:104F700050E0BE016F5E7F4FC8010E9404118F8513
:104F800098898115914029F48D859E8581159140E0
:104F900019F0812C912C16C089899A898115944029
:104FA00031F0C8010E94941087EF9FEF29C0B6012D
:104FB0006E5F7F4F44E050E0C8010E94041181E021
:104FC00090E01EC089899A89982789279827881692
:104FD000990638F4C8010E94DB102FEF821A920A5A
:104FE000F1CF8FEFE81AF80AEA14FB0409F084CF36
:104FF000C8010E94941086EF9FEF02C08DEF9FEFD3
:1050000063960FB6F894DEBF0FBECDBFDF91CF9190
:105010001F910F91FF90EF90DF90CF90BF90AF90D6
:105020009F908F907F906F905F904F9008958F9298
:105030009F92AF92BF92CF92DF92EF92FF920F9327
:105040001F93CF93DF9300D000D000D0CDB7DEB751
:105050008C015B016A010E94BF254C01009709F099
:105060005DC0F801428153816481758180916E0534
:1050700090916F05A0917005B0917105481759077F
:105080006A077B0709F44EC00E94AA087801F8E07D
:10509000EF0EF11C6F7077277C5FC7010E943A11F9
:1050A000813009F043C087EF91E09A838983F8014A
:1050B00082819381A481B5818B839C83AD83BE83E0
:1050C00045E350E0BE016F5F7F4FC7010E94BB10F8
:1050D000892B19F4812C912C1DC0B501C8010E94A7
:1050E0000B26892BB9F3C7010E94C310892B91F3BA
:1050F00033E0A32EB12CA60168E873E1C8010E9439
:10510000B4264C01F1E0AF1AB10821F08F3F2FEF28
:10511000920789F3C7010E94A61008C088248394CF
:10512000912C04C09EEF892E99249A94C40126964E
:105130000FB6F894DEBF0FBECDBFDF91CF911F91A8
:105140000F91FF90EF90DF90CF90BF90AF909F9026
:105150008F900895CF93DF9300D000D0CDB7DEB706
:105160009B01AC01611571058105910569F06983A9
:105170003A834B835C830E94582C29813A814B816E
:105180005C810E94202903C060E070E0CB010F9099
:105190000F900F900F90DF91CF910895CF92DF92F3
:1051A000EF92FF926B017C016217730784079507EA
:1051B00064F4CA01B9016C197D098E099F090E9426
:1051C000AA286C0D7D1D8E1D9F1DFF90EF90DF9016
:1051D000CF900895AA1BBB1B51E107C0AA1FBB1F9C
:1051E000A617B70710F0A61BB70B881F991F5A9573
:1051F000A9F780959095BC01CD010895A1E21A2EE2
:10520000AA1BBB1BFD010DC0AA1FBB1FEE1FFF1F6A
:10521000A217B307E407F50720F0A21BB30BE40BBA
:10522000F50B661F771F881F991F1A9469F7609501
:105230007095809590959B01AC01BD01CF010895BB
:10524000052E97FB1EF400940E94372957FD07D0C6
:105250000E94FE2807FC03D04EF40C943729509589
:105260004095309521953F4F4F4F5F4F0895909552
:105270008095709561957F4F8F4F9F4F0895692757
:10528000962769277827872778270895A29FB00156
:10529000B39FC001A39F700D811D1124911DB29F6A
:1052A000700D811D1124911D08950E944629B7FF9C
:1052B0000895821B930B08950E944629A59F900D87
:1052C000B49F900DA49F800D911D112408950F93FC
:1052D000083090F0982F872F762F652F542F432F6B
:1052E000322F22270850F4CF220F331F441F551F9F
:1052F000661F771F881F991F0A95B2F70F910895AF
:1053000097FB10F8169400080F93083098F0085097
:10531000232F342F452F562F672F782F892F902D2D
:10532000F4CF059497958795779567955795479509
:10533000379527950A95AAF70F9108950024A7FDA0
:1053400000942A0F301D401D501D601D701D801DD2
:10535000901D08952A153B054C055D056E057F05DA
:105360008007910708950024A7FD00942A173005AF
:105370004005500560057005800590050895EE0F05
:10538000FF1F0590F491E02D099498D088F09F5765
:1053900090F0B92F9927B751A0F0D1F0660F771F81
:1053A000881F991F1AF0BA95C9F712C0B13081F061
:1053B0009FD0B1E008959CC0672F782F8827B85FF1
:1053C00039F0B93FCCF3869577956795B395D9F7C2
:1053D0003EF490958095709561957F4F8F4F9F4FCC
:1053E0000895E89409C097FB3EF4909580957095D8
:1053F00061957F4F8F4F9F4F9923A9F0F92F96E921
:10540000BB279395F695879577956795B795F11195
:10541000F8CFFAF4BB0F11F460FF1BC06F5F7F4F32
:105420008F4F9F4F16C0882311F096E911C0772344
:1054300021F09EE8872F762F05C0662371F096E84D
:10544000862F70E060E02AF09A95660F771F881F1C
:10545000DAF7880F9695879597F9089597F99F67DA
:1054600080E870E060E008959FEF80EC08950024EC
:105470000A941616170618060906089500240A94B9
:1054800012161306140605060895092E0394000C3F
:1054900011F4882352F0BB0F40F4BF2B11F460FFCE
:1054A00004C06F5F7F4F8F4F9F4F089557FD9058F7
:1054B000440F551F59F05F3F71F04795880F97FBD8
:1054C000991F61F09F3F79F0879508951216130692
:1054D0001406551FF2CF4695F1DF08C016161706C1
:1054E0001806991FF1CF86957105610508940895F6
:1054F000E894BB2766277727CB0197F908950BD04F
:10550000C4CFB5DF28F0BADF18F0952309F0A6CF95
:10551000ABCF1124EECFCADFA0F3959FD1F3950F47
:1055200050E0551F629FF001729FBB27F00DB11D27
:10553000639FAA27F00DB11DAA1F649F6627B00DB7
:10554000A11D661F829F2227B00DA11D621F739FA0
:10555000B00DA11D621F839FA00D611D221F749FAE
:105560003327A00D611D231F849F600D211D822FF5
:10557000762F6A2F11249F5750408AF0E1F088233C
:105580004AF0EE0FFF1FBB1F661F771F881F915049
:105590005040A9F79E3F510570F060CFAACF5F3F02
:1055A000ECF3983EDCF3869577956795B795F7957C
:1055B000E7959F5FC1F7FE2B880F911D9695879504
:1055C00097F90895CF93DF938230910510F482E02C
:1055D00090E0E0917405F091750520E030E0A0E0E6
:1055E000B0E0309739F14081518148175907B8F040
:1055F0004817590771F482819381109729F0139607
:105600009C938E9312972CC090937505809374058C
:1056100027C02115310531F04217530718F0A901B1
:10562000DB0101C0EF019A01BD01DF010280F381BE
:10563000E02DD7CF21153105F9F0281B390B243087
:10564000310580F48A819B816115710521F0FB0190
:105650009383828304C09093750580937405FE0143
:10566000329644C0FE01E20FF31F819391932250C2
:105670003109398328833AC020917205309173052E
:10568000232B41F4209102013091030130937305E3
:1056900020937205209100013091010121153105FF
:1056A00041F42DB73EB74091040150910501241BF0
:1056B000350BE0917205F0917305E217F307A0F442
:1056C0002E1B3F0B2817390778F0AC014E5F5F4F58
:1056D0002417350748F04E0F5F1F50937305409312
:1056E00072058193919302C0E0E0F0E0CF01DF9179
:1056F000CF910895CF93DF93009709F487C0FC0101
:10570000329713821282C0917405D091750520974B
:1057100081F420813181280F391F80917205909189
:1057200073058217930779F5F0937305E09372057B
:105730006DC0DE0120E030E0AE17BF0750F41296D6
:105740004D915C9113979D014115510509F1DA01C5
:10575000F3CFB383A28340815181840F951F8A17B1
:105760009B0771F48D919C911197840F951F029660
:105770009183808312968D919C911397938382835A
:105780002115310529F4F0937505E09374053EC0A9
:10579000D9011396FC93EE9312974D915D91A40F4E
:1057A000B51FEA17FB0779F480819181840F951F5B
:1057B0000296D90111969C938E93828193811396C0
:1057C0009C938E931297E0E0F0E08A819B81009792
:1057D00019F0FE01EC01F9CFCE0102962881398142
:1057E000820F931F20917205309173052817390796
:1057F00069F4309729F4109275051092740502C06F
:1058000013821282D0937305C0937205DF91CF91FA
:1058100008958F929F92AF92BF92CF92DF92EF92B4
:10582000FF92CF93DF93EC01688179818A819B811C
:10583000611571058105910521F464E279ED8BE52F
:1058400097E02DE133EF41E050E00E94202949012B
:105850005A019B01AC01A7EAB1E40E945C296B01EB
:105860007C01ACEEB4EFA50194010E945E30C60E3F
:10587000D71EE81EF91EF7FE06C081E0C81AD1083F
:10588000E10880E8F80AC882D982EA82FB82C7016F
:10589000B6019F77DF91CF91FF90EF90DF90CF908F
:1058A000BF90AF909F908F9008950E94092C08950B
:1058B00086E091E00E94092C0895609306017093A0
:1058C000070180930801909309010895A0E0B0E0DA
:1058D000ECE6FCE20C946730EC01CB01209719F464
:1058E0000E94E22AB8C0FE01E60FF71F9E01225077
:1058F0003109E217F30708F4ACC0D9010D911C91EE
:10590000119706171707B8F00530110508F49FC066
:10591000A801445051094617570708F498C002508F
:105920001109061B170B019311936D937C93CF0103
:105930000E947A2B8CC05B01A01AB10A4E01800E26
:10594000911EA0917405B0917505612C712C60E0D9
:1059500070E0109709F449C0A815B905C9F5ED9094
:10596000FC901197670142E0C40ED11CCA14DB04FD
:1059700078F147018A189B08640142E0C40ED11CEB
:105980001296BC9012971396AC91B5E0CB16D10449
:1059900040F0B282A38391828082D9018D939C933F
:1059A00009C00E5F1F4F0E0D1F1DF90111830083EB
:1059B000EB2DFA2F6115710531F0DB011396FC9385
:1059C000EE93129744C0F0937505E09374053FC0C1
:1059D0006D917C9111976616770608F43B01BD0125
:1059E00012960D90BC91A02DB4CF6091720570916C
:1059F000730568157905E9F468167906D0F44091C5
:105A00000001509101014115510541F44DB75EB7B8
:105A10006091040170910501461B570BE417F507CF
:105A2000C0F4F0937305E0937205F90191838083CC
:105A30000EC00E94E22A7C01009759F0A801BE0125
:105A40000E943D2DCE010E947A2BC70104C0CE01D9
:105A500002C080E090E0CDB7DEB7EEE00C9483307A
:105A6000FB01DC0104C08D910190801921F44150AB
:105A70005040C8F7881B990B0895FB01DC0102C058
:105A800001900D9241505040D8F70895FB01DC0180
:105A900001900D920020E1F708954532510520F460
:105AA000423010F00C94582DFB011082CB01089568
:105AB000BB274A3031F4992322F4BDE290958195B9
:105AC0009F4F0C94642DBB27FB015527AA27880FF5
:105AD000991FAA1FA41710F0A41B83955051B9F762
:105AE000A05DAA3308F0A95DA193009779F7B111E1
:105AF000B1931192CB010C94BB2FAEE0B0E0E3E880
:105B0000FDE20C9471300D891E8986E08C831A8326
:105B100009838FEF9FE79E838D83AE01475E5F4FC2
:105B20006F89788DCE0101960E94CB2DEF81F8858B
:105B3000E00FF11F10822E96E4E00C948D30AEE061
:105B4000B0E0E5EAFDE20C9471308C01CA0146E058
:105B50004C831A83098377FF02C060E070E86150CC
:105B600071097E836D83A901BC01CE0101960E945B
:105B7000CB2D4D815E8157FD0AC02F81388542179C
:105B800053070CF49A01F801E20FF31F10822E96CE
:105B9000E4E00C948D30ACE0B0E0E1EDFDE20C947B
:105BA00063307C016B018A01FC01178216828381BC
:105BB00081FFBDC1CE0101964C01F7019381F60131
:105BC00093FD859193FF81916F01882309F4ABC107
:105BD000853239F493FD859193FF81916F01853270
:105BE00029F4B70190E00E94CB2FE7CF512C312C44
:105BF00020E02032A0F48B3269F030F4803259F08A
:105C0000833269F420612CC08D3239F0803339F44D
:105C1000216026C02260246023C0286021C027FDA7
:105C200027C030ED380F3A3078F426FF06C0FAE08E
:105C30005F9E300D1124532E13C08AE0389E300D24
:105C40001124332E20620CC08E3221F426FD6BC14C
:105C5000206406C08C3611F4206802C0883641F4F6
:105C6000F60193FD859193FF81916F018111C1CF61
:105C7000982F9F7D9554933028F40C5F1F4FFFE3BE
:105C8000F9830DC0833631F0833771F0833509F025
:105C90005BC022C0F801808189830E5F1F4F4424BE
:105CA0004394512C540115C03801F2E06F0E711C61
:105CB000F801A080B18026FF03C0652D70E002C00E
:105CC0006FEF7FEFC5012C870E94B02F2C0183015D
:105CD0002C852F77222E17C03801F2E06F0E711C31
:105CE000F801A080B18026FF03C0652D70E002C0DE
:105CF0006FEF7FEFC5012C870E94A52F2C012C850B
:105D00002068222E830123FC1BC0832D90E04816BF
:105D10005906B0F4B70180E290E00E94CB2F3A948C
:105D2000F4CFF50127FC859127FE81915F01B70132
:105D300090E00E94CB2F31103A94F1E04F1A5108B5
:105D40004114510471F7E5C0843611F0893639F5F4
:105D5000F80127FF07C060817181828193810C5F08
:105D60001F4F08C060817181882777FD8095982F2B
:105D70000E5F1F4F2F76B22E97FF09C0909580952A
:105D8000709561957F4F8F4F9F4F2068B22E2AE00C
:105D900030E0A4010E94FD2FA82EA81844C085372A
:105DA00029F42F7EB22E2AE030E025C0F22FF97FB1
:105DB000BF2E8F36C1F018F4883579F0B4C0803723
:105DC00019F0883721F0AFC02F2F2061B22EB4FE1A
:105DD0000DC08B2D8460B82E09C024FF0AC09F2FF0
:105DE0009660B92E06C028E030E005C020E130E022
:105DF00002C020E132E0F801B7FE07C06081718186
:105E0000828193810C5F1F4F06C06081718180E0A9
:105E100090E00E5F1F4FA4010E94FD2FA82EA8182E
:105E2000FB2DFF77BF2EB6FE0BC02B2D2E7FA514AA
:105E300050F4B4FE0AC0B2FC08C02B2D2E7E05C063
:105E40007A2C2B2D03C07A2C01C0752C24FF0DC099
:105E5000FE01EA0DF11D8081803311F4297E09C015
:105E600022FF06C07394739404C0822F867809F0D1
:105E7000739423FD13C020FF06C05A2C731418F42A
:105E8000530C5718732C731468F4B70180E290E038
:105E90002C870E94CB2F73942C85F5CF731410F4AC
:105EA000371801C0312C24FF12C0B70180E390E005
:105EB0002C870E94CB2F2C8522FF17C021FF03C007
:105EC00088E590E002C088E790E0B7010CC0822F1F
:105ED000867859F021FD02C080E201C08BE227FDE7
:105EE0008DE2B70190E00E94CB2FA51438F4B701E2
:105EF00080E390E00E94CB2F5A94F7CFAA94F4014C
:105F0000EA0DF11D8081B70190E00E94CB2FA11016
:105F1000F5CF332009F451CEB70180E290E00E9422
:105F2000CB2F3A94F6CFF7018681978102C08FEF8D
:105F30009FEF2C96E2E10C947F30F999FECF92BD51
:105F400081BDF89A992780B50895FC0105906150AC
:105F500070400110D8F7809590958E0F9F1F08957F
:105F6000FC016150704001900110D8F78095909528
:105F70008E0F9F1F0895DC01FC01672F719177231D
:105F8000E1F7329704C07C916D9370836291AE17F4
:105F9000BF07C8F308950F931F93CF93DF93182F74
:105FA000092FEB018B8181FD03C08FEF9FEF20C094
:105FB00082FF10C04E815F812C813D8142175307C3
:105FC0007CF4E881F9819F012F5F3F4F398328835B
:105FD000108306C0E885F985812F0995892B29F75B
:105FE0002E813F812F5F3F4F3F832E83812F902F44
:105FF000DF91CF911F910F910895FA01AA272830C0
:1060000051F1203181F1E8946F936E7F6E5F7F4F85
:106010008F4F9F4FAF4FB1E03ED0B4E03CD0670F01
:10602000781F891F9A1FA11D680F791F8A1F911D54
:10603000A11D6A0F711D811D911DA11D20D009F4A4
:1060400068943F912AE0269F11243019305D3193E6
:10605000DEF6CF010895462F4770405D4193B3E0CF
:106060000FD0C9F7F6CF462F4F70405D4A3318F076
:10607000495D31FD4052419302D0A9F7EACFB4E027
:10608000A6959795879577956795BA95C9F70097DF
:106090006105710508959B01AC010A2E0694579580
:1060A000479537952795BA95C9F7620F731F841FD7
:1060B000951FA01D0895B7FF0C945C290E945C29D0
:1060C000821B930B08952F923F924F925F926F9293
:1060D0007F928F929F92AF92BF92CF92DF92EF9278
:1060E000FF920F931F93CF93DF93CDB7DEB7CA1BF9
:1060F000DB0B0FB6F894DEBF0FBECDBF09942A8824
:10610000398848885F846E847D848C849B84AA84CB
:10611000B984C884DF80EE80FD800C811B81AA8158
:10612000B981CE0FD11D0FB6F894DEBF0FBECDBF23
:10613000ED01089513E0C6E8D3E004C0FE010E941B
:0E614000C1292296C838D107C9F7F894FFCFBD
:10614E0000007605800001000000636F732E696306
:10615E00616D676F2E636F6D0000C025303458007F
:10616E007B226D657461223A22002C00222C22764D
:10617E00616C7565223A22007B2276616C75652210
:10618E003A223000222C226677766572223A22005D
:10619E00312E312E3600227D00256300746F6B6523
:1061AE006E3A20002530325800436F6E74656E745F
:1061BE002D4C656E6774683A2000436F6E74656E81
:1061CE00742D547970653A20746578742F68746DE7
:1061DE006C00436F6E6E656374696F6E3A20636C0C
:1061EE006F7365000A0D00323030204F4B00504F58
:1061FE005354202F76322F6E6F64652F7374617433
:10620E006520485454502F312E3100416363657020
:10621E00743A202A2F202A006E6F6469643A200097
:10622E007B000D0A006E616E00696E66006F766609
:10623E00002E0000000000AD0A00000000900EB914
:10624E000ED30EDC0EFA0E1D0F990F210FF60EF661
:10625E000F3010A60E810E840EAE0E860E000000BC
:10626E00007E10C7107A10DB10211194103A11A67F
:10627E0010BB10CC11C310671104115F106610769D
:08628E001057495A6E657400B7
:00000001FF
